{
  "contractName": "Transporte",
  "abi": [
    {
      "constant": true,
      "inputs": [
        {
          "name": "",
          "type": "uint256"
        }
      ],
      "name": "pagos",
      "outputs": [
        {
          "name": "piloto",
          "type": "address"
        },
        {
          "name": "usuario",
          "type": "address"
        },
        {
          "name": "userBalance",
          "type": "uint256"
        },
        {
          "name": "tipo",
          "type": "uint256"
        }
      ],
      "payable": false,
      "stateMutability": "view",
      "type": "function"
    },
    {
      "constant": true,
      "inputs": [],
      "name": "cantidadPagos",
      "outputs": [
        {
          "name": "",
          "type": "uint256"
        }
      ],
      "payable": false,
      "stateMutability": "view",
      "type": "function"
    },
    {
      "constant": true,
      "inputs": [],
      "name": "empresa",
      "outputs": [
        {
          "name": "",
          "type": "address"
        }
      ],
      "payable": false,
      "stateMutability": "view",
      "type": "function"
    },
    {
      "inputs": [],
      "payable": false,
      "stateMutability": "nonpayable",
      "type": "constructor"
    },
    {
      "constant": false,
      "inputs": [
        {
          "name": "_piloto",
          "type": "address"
        },
        {
          "name": "_tipo",
          "type": "uint256"
        }
      ],
      "name": "pagar",
      "outputs": [],
      "payable": true,
      "stateMutability": "payable",
      "type": "function"
    },
    {
      "constant": true,
      "inputs": [],
      "name": "getBalance",
      "outputs": [
        {
          "name": "",
          "type": "uint256"
        }
      ],
      "payable": false,
      "stateMutability": "view",
      "type": "function"
    }
  ],
  "bytecode": "0x608060405234801561001057600080fd5b50336000806101000a81548173ffffffffffffffffffffffffffffffffffffffff021916908373ffffffffffffffffffffffffffffffffffffffff16021790555060006001819055506104e6806100686000396000f30060806040526004361061006d576000357c0100000000000000000000000000000000000000000000000000000000900463ffffffff16806312065fe0146100725780633deed02a1461009d578063453c51cf1461014b578063bf1f1d7b1461018b578063cf7bddef146101b6575b600080fd5b34801561007e57600080fd5b5061008761020d565b6040518082815260200191505060405180910390f35b3480156100a957600080fd5b506100c86004803603810190808035906020019092919050505061022c565b604051808573ffffffffffffffffffffffffffffffffffffffff1673ffffffffffffffffffffffffffffffffffffffff1681526020018473ffffffffffffffffffffffffffffffffffffffff1673ffffffffffffffffffffffffffffffffffffffff16815260200183815260200182815260200194505050505060405180910390f35b610189600480360381019080803573ffffffffffffffffffffffffffffffffffffffff1690602001909291908035906020019092919050505061029c565b005b34801561019757600080fd5b506101a061048f565b6040518082815260200191505060405180910390f35b3480156101c257600080fd5b506101cb610495565b604051808273ffffffffffffffffffffffffffffffffffffffff1673ffffffffffffffffffffffffffffffffffffffff16815260200191505060405180910390f35b60003073ffffffffffffffffffffffffffffffffffffffff1631905090565b60026020528060005260406000206000915090508060000160009054906101000a900473ffffffffffffffffffffffffffffffffffffffff16908060010160009054906101000a900473ffffffffffffffffffffffffffffffffffffffff16908060020154908060030154905084565b6001600081548092919060010191905055506080604051908101604052808373ffffffffffffffffffffffffffffffffffffffff1681526020013373ffffffffffffffffffffffffffffffffffffffff1681526020013373ffffffffffffffffffffffffffffffffffffffff163181526020018281525060026000600154815260200190815260200160002060008201518160000160006101000a81548173ffffffffffffffffffffffffffffffffffffffff021916908373ffffffffffffffffffffffffffffffffffffffff16021790555060208201518160010160006101000a81548173ffffffffffffffffffffffffffffffffffffffff021916908373ffffffffffffffffffffffffffffffffffffffff16021790555060408201518160020155606082015181600301559050506001811415610422573373ffffffffffffffffffffffffffffffffffffffff166108fc349081150290604051600060405180830381858888f1935050505015801561041c573d6000803e3d6000fd5b5061048b565b6000809054906101000a900473ffffffffffffffffffffffffffffffffffffffff1673ffffffffffffffffffffffffffffffffffffffff166108fc349081150290604051600060405180830381858888f19350505050158015610489573d6000803e3d6000fd5b505b5050565b60015481565b6000809054906101000a900473ffffffffffffffffffffffffffffffffffffffff16815600a165627a7a72305820074ca7b30e816405091aa56757ee2f84bcdd7d56cdf74f3d342d9ba887deee8a0029",
  "source": "pragma solidity ^0.4.24;\r\n\r\ncontract Transporte {\r\n\r\n    address public empresa;\r\n    uint public cantidadPagos;\r\n\r\n    struct Pago {\r\n        address piloto;\r\n        address usuario;\r\n        uint userBalance;\r\n        uint tipo;   //  1   =   dia     2   =   noche\r\n    }\r\n\r\n    mapping(uint => Pago) public pagos;\r\n\r\n    constructor() public {\r\n        empresa = msg.sender;\r\n        cantidadPagos = 0;\r\n    }\r\n\r\n    function pagar(address _piloto, uint _tipo) public payable {\r\n        \r\n        cantidadPagos++;\r\n        pagos[cantidadPagos] = Pago(_piloto, msg.sender, msg.sender.balance, _tipo);\r\n\r\n        if(_tipo == 1){\r\n            msg.sender.transfer(msg.value);\r\n        }else{\r\n            empresa.transfer(msg.value);\r\n        }                     \r\n    }\r\n\r\n    function getBalance() public view returns (uint) {\r\n        return address(this).balance;\r\n    }\r\n    \r\n}",
  "sourcePath": "C:\\Users\\tosh\\Desktop\\nuevo\\contracts\\Transporte.sol",
  "compiler": {
    "name": "solc",
    "version": "0.4.24+commit.e67f0147.Emscripten.clang"
  },
  "schemaVersion": "2.0.1",
  "updatedAt": "2018-10-17T15:35:11.541Z"
}